{
  "_format": "hh-sol-artifact-1",
  "contractName": "Hash",
  "sourceName": "contracts/Hash.sol",
  "abi": [
    {
      "inputs": [],
      "stateMutability": "nonpayable",
      "type": "constructor"
    },
    {
      "anonymous": false,
      "inputs": [
        {
          "indexed": false,
          "internalType": "uint256",
          "name": "id",
          "type": "uint256"
        },
        {
          "indexed": false,
          "internalType": "bytes",
          "name": "data",
          "type": "bytes"
        }
      ],
      "name": "CreatedHash",
      "type": "event"
    },
    {
      "inputs": [
        {
          "internalType": "bytes",
          "name": "data",
          "type": "bytes"
        }
      ],
      "name": "createHash",
      "outputs": [],
      "stateMutability": "nonpayable",
      "type": "function"
    },
    {
      "inputs": [
        {
          "internalType": "uint256",
          "name": "",
          "type": "uint256"
        }
      ],
      "name": "hashList",
      "outputs": [
        {
          "internalType": "bytes",
          "name": "",
          "type": "bytes"
        }
      ],
      "stateMutability": "view",
      "type": "function"
    },
    {
      "inputs": [],
      "name": "id",
      "outputs": [
        {
          "internalType": "uint256",
          "name": "",
          "type": "uint256"
        }
      ],
      "stateMutability": "view",
      "type": "function"
    }
  ],
  "bytecode": "0x608080604052346100165761042f908161001c8239f35b600080fdfe608060408181526004918236101561001657600080fd5b600092833560e01c9182632c8d41fd1461029a575081632cd0cff214610065575063af640d0f1461004657600080fd5b34610061578160031936011261006157602091549051908152f35b5080fd5b83833461006157602090816003193601126102965767ffffffffffffffff843581811161029257366023820112156102925780860135918211610292576024903682848301011161028e57821561025d5785546000199788821461024b575060018091018088558752808652848720906100df82546103bf565b601f8111610205575b5087601f8611600114610178579188998680809795948660609b9a98967f9306f8002523b7d48973a5e6a1ffcfbb63a192dd5501e2cc968cef489594ad939e9461016b575b50501b918660031b1c19161790555b82895495808051998a98895288015286015201848401378181018301869052601f01601f19168101030190a180f35b870101359250868f61012d565b82895287892099601f1987168a5b8181106101ee57509a86949288978897959360609b9a7f9306f8002523b7d48973a5e6a1ffcfbb63a192dd5501e2cc968cef489594ad939e9f106101d4575b5050505084811b01905561013c565b60f88960031b161c1991860101351690558b8085816101c5565b8684018801358d559b84019b928a01928a01610186565b828952878920601f870160051c810191898810610241575b601f0160051c019082905b8281106102365750506100e8565b8a8155018290610228565b909150819061021d565b634e487b7160e01b8852601190528287fd5b835162461bcd60e51b8152808801869052600c818401526b496e76616c6964206461746160a01b6044820152606490fd5b8580fd5b8480fd5b8280fd5b915092346103bc576020806003193601126100615790829185358252600180825285832083918154916102cc836103bf565b9283885285838216918260001461039e575050600114610369575b505050601f801995869203011683019583871067ffffffffffffffff881117610356575085929391838652818452845191828186015281955b83871061033e5750508394508582601f949501015201168101030190f35b86810182015189880189015295810195889550610320565b634e487b7160e01b835260419052602482fd5b85528385208593505b82841061038857505050830181013880806102e7565b8054888501860152879650928401928101610372565b93509450505060ff191682860152151560051b8401013880806102e7565b80fd5b90600182811c921680156103ef575b60208310146103d957565b634e487b7160e01b600052602260045260246000fd5b91607f16916103ce56fea26469706673582212207be639c9d50b3da46a4e268c61236a57c5e280a67685dd855defc5230c6dc5e064736f6c63430008130033",
  "linkReferences": {},
  "deployedLinkReferences": {}
}